:020000040800F2
:1000000048070020CD0100087B12000845100008B9
:1000100079120008F30200087B15000800000000B8
:100020000000000000000000000000007F12000837
:10003000F5020008000000007D120008811200088F
:10004000E7010008E7010008E7010008E7010008F0
:10005000E7010008E7010008E7010008E7010008E0
:10006000E7010008E7010008E7010008E7010008D0
:10007000E7010008E7010008E7010008E7010008C0
:10008000E7010008E7010008E7010008E7010008B0
:10009000E7010008E7010008E7010008E7010008A0
:1000A000E7010008E7010008E7010008E701000890
:1000B000E7010008E7010008E7010008E701000880
:1000C000E7010008E7010008E7010008E701000870
:1000D000E7010008E7010008E7010008E701000860
:1000E000E7010008E7010008E7010008E701000850
:1000F000E7010008E7010008E7010008E701000840
:10010000E7010008E7010008E7010008E70100082F
:10011000E7010008E7010008E7010008E70100081F
:10012000E7010008E7010008E7010008E70100080F
:1001300000F002F800F03AF80AA090E8000C8244BF
:100140008344AAF10107DA4501D100F02FF8AFF29C
:10015000090EBAE80F0013F0010F18BFFB1A43F0A5
:10016000010318472827000048270000103A24BF41
:1001700078C878C1FAD8520724BF30C830C144BF0C
:1001800004680C607047000000230024002500264E
:10019000103A28BF78C1FBD8520728BF30C148BFEA
:1001A0000B6070471FB51FBD10B510BD00F06CF897
:1001B0001146FFF7F7FF01F0C9FA00F08AF803B41F
:1001C000FFF7F2FF03BC00F08DF8000009488047FC
:1001D00009480047FEE7FEE7FEE7FEE7FEE7FEE729
:1001E000FEE7FEE7FEE7FEE704480549054A064B41
:1001F00070470000E31200083101000848010020A8
:100200004807002048030020480300204FF0000268
:1002100000B5134694469646203922BFA0E80C50FC
:10022000A0E80C50B1F12001BFF4F7AF090728BFD7
:10023000A0E80C5048BF0CC05DF804EB890028BF53
:1002400040F8042B08BF704748BF20F8022B11F07C
:10025000804F18BF00F8012B7047704770477047F8
:1002600010B500F009F8006810BD10B5044600F0A4
:1002700003F8046010BD000000487047E80000204B
:1002800000487047E80000207546FFF7F9FFAE46CA
:1002900005006946534620F00700854618B020B592
:1002A000FFF7A2FFBDE820404FF000064FF0000727
:1002B0004FF000084FF0000B21F00701AC46ACE80E
:1002C000C009ACE8C009ACE8C009ACE8C0098D467B
:1002D000704710B50446AFF300802046BDE81040DB
:1002E000FFF76DBF01491820ABBEFEE726000200F4
:1002F0007047FEE7704772B6FEE7000070B504462F
:1003000000F010F90546601C02D00448007804444F
:1003100000F008F9401BA042FAD370BD0000002095
:100320002DE9F84FDFF8C891002409F1040A0AF119
:10033000040B23460F270BF1040ED1E00125A54045
:1003400006EA0502AA4276D1DFF8A8C14E68A6EBFC
:100350000C0866452BD00DDC032E34D005DC36B3FB
:10036000012E19D0022E2FD11BE0112E16D0122EE5
:100370002AD119E0B8F5881F19D006DCB8F5803FFE
:1003800015D0B8F5801F1FD111E0B8F5001F0ED0B1
:10039000B8F5041F18D10AE0CB6815E0CB681B1D27
:1003A00012E0CB6808330FE0CB680C330CE08B68AD
:1003B0002BB1012B4FF0080303D0456104E0042367
:1003C00002E0056100E00023FF2A01D8064601E0B3
:1003D00000F104064FEA840501D9A5F12005D6F8FD
:1003E000008007FA05FC28EA0C0803FA05F548EA3C
:1003F0000508C6F800804D68ED0070D53E4DAE6929
:1004000046F00106AE61AD6924F0030605F0010572
:1004100000953A4D06EB050CDCF80850A607360FA0
:1004200007FA06F825EA0805DFF8D480404503D12D
:100430004FF0000825E052E0DFF8C880404502D1C7
:100440004FF001081DE0DFF8C080404502D14FF0B9
:10045000020816E0DFF8B480404502D14FF00308EF
:100460000FE0DFF8AC80404502D14FF0040808E00F
:10047000DFF8A080404502D14FF0050801E04FF0C1
:10048000060808FA06F848EA0508CCF808804D681E
:10049000D9F80060ED034D4601D5164300E09643C0
:1004A0002E604D68DAF80060AD03554601D516435D
:1004B00000E096432E604D68DBF80060ED025D467B
:1004C00001D5164300E096432E604D68DEF80060CB
:1004D000AD02754601D5164300E096432E60641CBC
:1004E0000A681646E2407FF429AFBDE8F88F0000A5
:1004F0000004014000001110001002400000014003
:1005000000080140000C01400010014000140140AF
:1005100000180140001C01400AB101617047090444
:10052000FBE70000014880687047000000000020E1
:100530000248816802781144816070470000002001
:10054000074810B5016841F010010160032000F078
:1005500067F80F2000F006F800F024F8002010BD26
:100560000020024070B50D4D04464FF47A71287892
:10057000B1FBF0F00A490968B1FBF0F000F0BEFAF7
:1005800048B9102C07D200222146501E00F028F84E
:1005900000206C6070BD012070BD000000000020D4
:1005A0000C0000200C4808B5816941F0010181610F
:1005B000816901F001010091C16941F08051C1617F
:1005C000C06900F0805000900448416821F0E0616B
:1005D00041F00071416008BD001002400000014080
:1005E000F0B40E4B1B680C46C3F30223C3F107059E
:1005F000042D00D90425191D072901D2002300E08C
:10060000DB1E012606FA05F1491E214099409E4055
:10061000761E16403143F0BC00F0C3BF0CED00E085
:10062000064900F0070208684FF6FF03184040EA49
:100630000220034A10430860704700000CED00E000
:100640000000FA052DE9F0470F46050061D0434E42
:10065000306800F00700B84209D2306820F0070087
:1006600038433060306800F00700B84251D1286844
:100670003B4C810712D5400703D5606840F4E06029
:1006800060602878000703D5606840F460506060BF
:100690006068A96820F0F000084360602878C0070F
:1006A00028D06868012810D02168022810D0890756
:1006B00000292EDA616821F0030101436160FFF730
:1006C00031FF804641F288390DE021688903EFE768
:1006D0008901EDE7FFF726FFA0EB0801494502D9A4
:1006E0000320BDE8F0876068696800F00C00B0EB9B
:1006F000810FEFD1306800F00700B8420BD93068A5
:1007000020F0070038433060306800F00700B8423E
:1007100001D00120E5E72878400705D56068E96841
:1007200020F4E060084360602878000706D5606820
:10073000296920F4605040EAC100606000F018F8B8
:100740006168084AC1F30311515CC840064908605A
:1007500006480068FFF706FF0020C2E700200240BD
:10076000001002404A2800080C000020040000206D
:1007700012A185B00FC98DE80F0014A0144A0068BB
:1007800004905168134801F00C03042B10D0082B7F
:100790000ED1C1F38343C9031DF803000AD5516884
:1007A00004AAC1F34041515C0A4A5043B0FBF1F046
:1007B00005B0704708494843FAE700000203040502
:1007C000060708090A0B0C0D0E0F1010010200009D
:1007D0000010024000127A0000093D002DE9F84F98
:1007E000040070D02078C04DC00749D06868C0F3BD
:1007F0008100012807D06868C0F38100022809D170
:100800006868C00306D52868800339D56068002869
:10081000E7D035E06068B0F5803F0BD010B1B0F59F
:10082000A02F11D0286820F480302860286820F498
:10083000802002E0286840F480302860606890B131
:10084000FFF770FE06460AE0286840F48020286022
:10085000F0E700BFFFF766FE801B642873D82868A6
:100860008003F7D50CE0FFF75DFE064605E000BF0C
:10087000FFF758FE801B6428F0D828688003F7D45F
:1008800020789A4E80074FF001094FF0000839D5C3
:10089000686810F00C0F07D06868C0F38100022868
:1008A00009D16868C00306D42868800714D5206978
:1008B000012808D110E02069B0B1C6F80090FFF718
:1008C00031FE074605E00AE1FFF72CFEC01B0228B7
:1008D000C4D828688007F7D52868616920F0F80037
:1008E00040EAC10028600DE0C6F80080FFF71AFE5C
:1008F000074604E0FFF716FEC01B022823D828682D
:100900008007F7D4207800072CD57948A169D9B1A0
:10091000C0F80090FFF706FE074604E0FFF702FE6E
:10092000C01B02280FD8686A8007F7D571484FF4BA
:10093000FA510068B0FBF1F0009000BF0098411E32
:100940000091FAD20EE080E0C0F80080FFF7EAFDE7
:10095000074604E0FFF7E6FDC01B022875D8686A69
:100960008007F7D42078400760D5E8690027C000E9
:1009700008D4E86940F08050E861E869012700F098
:10098000805000905C480168C90513D40168834613
:1009900041F480710160FFF7C5FD824606E000BFAB
:1009A000FFF7C0FDA0EB0A0064284ED8DBF800007A
:1009B000C005F5D5E06801280AD008B1052813D094
:1009C000286A20F001002862286A20F0040002E072
:1009D000286A40F001002862E06841F2883B98B143
:1009E000FFF7A0FD82460BE0286A40F00400286271
:1009F000EEE700BFFFF796FDA0EB0A0159455AD874
:100A0000286A8007F6D50CE0FFF78CFD824605E0EA
:100A1000FFF788FDA0EB0A0159454CD8286A8007EA
:100A2000F6D41FB1E86920F08050E861E06988B32E
:100A30006968C1F38101022944D00228C6F86080A8
:100A400004D0FFF76FFD044638E034E0FFF76AFD9D
:100A5000074604E0FFF766FDC01B02282BD8286874
:100A60008001F7D4206AB0F5803F05D16868A1689D
:100A700020F4003008436860D4E90801084369683D
:100A800021F4741108436860C6F86090FFF74AFDCE
:100A9000044606E025E000BFFFF744FD001B0228E6
:100AA00009D828688001F7D51BE000BFFFF73AFDA1
:100AB000001B022802D90320BDE8F88F28688001B6
:100AC000F4D40EE00128F7D06868226A00F480317F
:100AD000914204D1616A00F47010884201D0012073
:100AE000EAE70020E8E70000001002400000424270
:100AF000800442420C0000200070004010B5401EEF
:100B0000B0F1807F01D3012010BD4FF0E02460617F
:100B10000F21601700F045FD0020A0610720206133
:100B2000002010BD10B590F83C20012A22D00122EF
:100B300080F83C20CA688C6822F4407222434C68DA
:100B400022F4806222430C6822F4006222430C6982
:100B500022F4805222434C6922F400522243C96994
:100B6000002322F480420A4301684A6480F83C3042
:100B7000002010BD022010BD70B590F83C20012A65
:100B80002CD0012480F83C40022280F83D200368EC
:100B90005A689D6822F070060A6832435A60104B0A
:100BA00002689A420ED00F4B9A420BD0B2F1804F9E
:100BB00008D00D4B9A4205D00C4B9A4202D00C4BF8
:100BC0009A4204D1496825F080031943916080F866
:100BD0003D40002180F83C10084670BD022070BDE9
:100BE000002C014000340140000400400008004097
:100BF000000C004010B5040003D094F83D0010B183
:100C000007E0012010BD002084F83C00204600F0E1
:100C10001FF8022084F83D00211D206800F062FBCF
:100C2000012084F8460084F83E0084F83F0084F8F0
:100C3000400084F8410084F8420084F8430084F8BE
:100C4000440084F8450084F83D00002010BD0000F9
:100C500008B50C4A01680C48914207D1816941F4FA
:100C600000618161806900F4006009E0B1F1804FAA
:100C700007D1C16941F00101C161C06900F0010003
:100C8000009008BD002C01400010024070B50446E1
:100C900090F83C00012817D0012584F83C50022030
:100CA00084F83D002068826822F0770222F47F42B7
:100CB00082600868502830D00DDC20284DD005DC3B
:100CC00098B310283BD148E0022070BD302844D0B2
:100CD000402834D139E0602828D0702806D0B0F5FB
:100CE000805F2CD0B0F5005F29D10AE0CB68D1E954
:100CF0000121206800F049FB2068816841F07701FC
:100D000009E0CB68D1E90121206800F03EFB2068B2
:100D1000816841F48041816011E0CA6849682068B7
:100D200000F008FC5021206807E016E0CA68496816
:100D3000206800F010FC6021206800F030FB84F88F
:100D40003D50002084F83C0070BDCA6849682068A6
:100D500000F0F0FB40212068EFE7226801461046D2
:100D6000EBE7000000B585B00021009101910291F0
:100D700003911A4B02681A4802219A421AD18269D9
:100D800042F0400282618069039100F040000490CB
:100D90000802CDE9000169461248FFF7C1FA12487E
:100DA000416821F0C00141F0E06141F0C0014160C3
:100DB00005B000BDB2F1804FFAD1826942F0040261
:100DC00082618069039100F0040004900120CDE964
:100DD000000169460548FFF7A3FAE9E7002C014046
:100DE00000100240001801400000014000080140CE
:100DF00070B5044690F83C000D4601280AD0012049
:100E000084F83C0042B1042A18D0082A2AD00C2ABF
:100E10004DD139E0022070BD206800F0C9FA206889
:100E2000816941F0080181612068816921F0040134
:100E30008161206881692A69114311E0206800F00E
:100E4000E7FA2068816941F4006181612068816965
:100E500021F480618161206881692A6941EA022167
:100E6000816124E0206800F009FB2068C16941F03D
:100E70000801C1612068C16921F00401C1612068D5
:100E8000C1692A69114311E0206800F02BFB20683A
:100E9000C16941F40061C1612068C16921F48061C8
:100EA000C1612068C1692A6941EA0221C16100204B
:100EB00084F83C0070BD10B5040003D094F83D00E8
:100EC00010B107E0012010BD002084F83C0020464E
:100ED00000F01EF8022084F83D00211D206800F07B
:100EE00001FA012084F8460084F83E0084F83F00AF
:100EF00084F8400084F8410084F8420084F84300FC
:100F000084F8440084F8450084F83D00002010BDBA
:100F10007047000010B50446022249B104290ED0E2
:100F2000082913D094F84100012816D0012010BDE3
:100F300094F83E000128F9D184F83E200FE094F89F
:100F40003F000128F2D184F83F2008E094F84000E7
:100F50000128EBD184F8402001E084F841200122EF
:100F6000206800F005FA13492068134A884201D02E
:100F7000904203D1436C43F40043436420688842A9
:100F80000DD090420BD0B0F1804F08D00B49884271
:100F900005D00B49884202D00A49884204D18168B1
:100FA00001F00701062903D0016841F00101016049
:100FB000002010BD002C014000340140000400401E
:100FC00000080040000C004030B504460D460068A3
:100FD000002200F0CDF9194B41F2111120688A105E
:100FE000984202D0164B984209D1036A0B4206D1AF
:100FF000036A134203D1436C23F400434364206823
:10100000036A0B4206D1016A114203D1016821F043
:101010000101016001203DB1042D08D0082D09D047
:1010200084F84100002030BD84F83E00FAE784F8DF
:101030003F00F7E784F84000F4E70000002C01408F
:1010400000340140FEE700002DE9F04385B00025A3
:101050002D480095019502950395816941F0100195
:101060008161816901F010010491816941F00401FD
:101070008161816901F004010491816941F080017D
:101080008161816901F080010491816941F0400131
:10109000816180691D4F00F040000490002208210A
:1010A0003846FFF739FA0122DFF86480D60331466B
:1010B0004046FFF731FADFF85C9000228021484675
:1010C000FFF72AFA012211024846FFF725FA082005
:1010D00001248DE83100694638460394FFF720F972
:1010E0000096CDE90145694640460394FFF718F99B
:1010F0004FF4C0708DE83100694648460394FFF70D
:101100000FF905B0BDE8F083001002400010014067
:10111000001C01400018014010B596B000240F9447
:1011200010941194129413941C2108A81494FFF79E
:101130006DF820216846FFF769F8284826490160C4
:101140004721C0E9011442F21071C0E9031444615F
:101150008461FFF74FFD08B1FFF7CDF84FF48050E1
:101160000F900FA91D48FFF791FD08B1FFF7C3F8D5
:101170001A48FFF7A0FE08B1FFF7BDF8139413A9B2
:1011800016481494FFF7F8FC08B1FFF7B4F8602094
:10119000CDE908040A940B940C940D94002208A93C
:1011A0000E480E94FFF724FE08B1FFF7A4F8009450
:1011B0004FF40050CDE90440029401940394694631
:1011C00006480794FFF7AEFC08B1FFF794F8034810
:1011D000FFF7C8FD16B010BD002C014058000020DC
:1011E00010B58EB000240794089409940A940B94C7
:1011F0001C2168460C94FFF709F81E484FF0804107
:1012000001604721C0E9011442F21071C0E90314E2
:101210008461FFF7EFFC08B1FFF76DF84FF48050E1
:10122000079007A91348FFF731FD08B1FFF763F8EE
:101230001048FFF740FE08B1FFF75DF80B940BA9CB
:101240000C480C94FFF798FC08B1FFF754F86020A5
:10125000CDE9000402940022694606480494FFF791
:10126000C7FD08B1FFF747F80248FFF77BFD0EB056
:1012700010BD0000A0000020FEE7FEE770477047A9
:10128000FFF756B930B58FB028216846FEF7BEFF8C
:1012900014210AA8FEF7BAFF01210804CDE90010C5
:1012A0000024029402250491CDE907504FF4E01088
:1012B00009906846FFF792FA08B172B6FEE70F2070
:1012C000CDE90A054FF48060CDE90C4002210AA85F
:1012D0000E94FFF7B7F9002801D072B6FEE70FB001
:1012E00030BD7047F0B502681C4B1D4D1D4E1E4FA2
:1012F0001E4C4FF0804C984209D0A04207D0604568
:1013000005D0A84203D0B04201D0B84204D122F0A7
:10131000700E4A6842EA0E02984209D0A04207D0F5
:10132000604505D0A84203D0B04201D0B84203D1F5
:1013300022F44075CA682A434D6922F080022A438C
:1013400002608A68C2620A688262984201D0A04242
:1013500001D10969016301214161F0BD002C014007
:101360000004004000080040000C00400034014030
:1013700010B501F01F030121046A99408C430462F7
:10138000016A9A401143016210BD10B5846842EAB7
:10139000032224F47F440A432243826010BD826802
:1013A00022F070020A4342F007018160704700009A
:1013B000F0B5026A22F001020262036A426884699F
:1013C000124E24F073050C682C4323F002058B6841
:1013D0002B430D4DA84201D0B04205D123F00807A0
:1013E000CB683B4323F00403A84201D0B04205D1AF
:1013F0004D6922F4407215438A692A434260846130
:10140000496841630362F0BD002C01400034014093
:10141000F0B5026A22F010020262026A436884692F
:101420000D6824F4E64444EA05248D6822F0200285
:1014300042EA05120F4D104EA84201D0B04206D12B
:10144000CF6822F0800242EA071222F04002A8424E
:1014500001D0B04207D14D6923F4406343EA8503CC
:101460008D6943EA85034360846149688163026250
:10147000F0BD0000002C014000340140F0B5026ACC
:1014800022F480720262026A4368C46922F4007224
:1014900024F073050C68124E2C438D6842EA052235
:1014A0000E4DA84201D0B04206D1CF6822F40062AE
:1014B00042EA072222F48062A84201D0B04207D15A
:1014C0004D6923F4405343EA05138D6943EA05133C
:1014D0004360C4614968C1630262F0BD002C0140F1
:1014E0000034014030B5026A22F480520262046A7C
:1014F0004268C3690D6823F4E64343EA05238D6817
:1015000024F4005444EA0534084DA84202D0084DA2
:10151000A84204D14D6922F4804242EA8512426019
:10152000C36149680164046230BD0000002C0140C1
:101530000034014010B5036A046A24F00104046217
:10154000846924F0F00444EA021423F00A020A43F6
:101550008461026210BD10B5036A23F010030362B8
:101560008369046A23F4704343EA023224F0A0033F
:1015700043EA01118261016210BDFEE741000802E9
:1015800018BF04200A0E18BF40F001004FF07F4240
:1015900032EA010108BF40F00200012808BF05201F
:1015A00070470907090E002804DB00F1E02080F8ED
:1015B0000014704700F00F0000F1E02080F8141DC7
:1015C0007047012101F003B961214FF0E04001F0C3
:1015D000FEB86FF05E01080701F0F9B82DE9F0419F
:1015E00004464FF019404E49002500EB4400884264
:1015F0004AD84C49204600F0DDFE00F0D9FF804675
:1016000000F054FE06464849404600F0D3FE074627
:101610004649404600F0CEFE214600F0F9FF39462B
:1016200001F000F80446424900F0C4FE414900F0D0
:1016300007FD214600F0BEFE6FF0414100F000FDC5
:10164000214600F0B7FE3C4900F0FAFC214600F0CC
:10165000B1FE0146394806F00304784450F82400EE
:1016600000F0A8FE3649794451F8241000F0E8FC57
:101670003449794451F8241000F0E2FCB11085BBE4
:10168000BDE8F04101F0A3B84FF0FF4131EA04009A
:1016900018D04FF0CE41B1EB440F84BF4FF07E50D5
:1016A000BDE8F0812849B1EB440F28BF0125A0D245
:1016B0000220FEF7DAFD14F0004F0ED0BDE8F04135
:1016C000FFF787BF204614F5000F04BF0020BDE8D8
:1016D000F081BDE8F041FFF774BFBDE8F041FFF7CE
:1016E00073BF01F074F804000BD0B4F1FF4F0FD0BA
:1016F000FFF744FF042808BFFFF76BFF2046BDE853
:10170000F0810220FEF7B1FDBDE8F041FFF761BFB7
:101710000220FEF7AAFDBDE8F041FFF755BF00002B
:101720000000501E3BAAB840F4FD05370070313E62
:1017300012BB2A3D12BB2A3EFFFF7F3F1E12000054
:1017400002120000E61100000000A0858CB0FEF738
:10175000F7FEDFF880934FF0000B4FF07E50DE492C
:10176000C9F814B0DD4AC9F82000C9E9032109F11C
:10177000240A0123CAE9041B63F3070763F307087C
:1017800063F307050223CAF80C20082463F3070655
:10179000CAF82000FFF776FDFFF756FCFFF7BCFC08
:1017A000FFF71EFD0021CE48FFF7B4FB0021CD4816
:1017B000FFF7B0FBCC49C9F800B0C9E901B1CB498A
:1017C000CAF800B0CAE901B1DFF824B3DFF8049326
:1017D000C848D9F8041081420ADA484600F0E6F910
:1017E0002346F9B208F0FF00D9F8042000F020FAEF
:1017F000B848243000F0DAF9B64823462430E9B27C
:101800004268F0B200F014FADBF8000000F0DAFAF7
:101810004FF0FF394A4600F0ACFF00F08FFAB049B4
:10182000096848634FF0804ADAF82C0000F0CAFAE1
:101830004A4600F09EFF00F081FAAA490968486311
:101840000A20FEF75BFDA34824304168AA48814284
:10185000BCDD4FF47A70FEF751FD9E48416801608F
:10186000A649816000F124014A680A60A44A8A609E
:1018700036E09848A349406888420ADA954800F063
:1018800095F994482346F9B2426808F0FF0000F049
:10189000CFF99048243000F089F98E48234624304F
:1018A000E9B24268F0B200F0C3F9DBF8000000F0E2
:1018B00089FA4A4600F05DFF00F040FA884909685D
:1018C0004863DAF82C0000F07DFA4A4600F051FF38
:1018D00000F034FA8349096848630A20FEF70EFDD8
:1018E0007C482430416888488142C2DD4FF47A70D8
:1018F000FEF704FD7748416801608449816000F18A
:1019000024014A680A60824A8A6036E07148416868
:10191000804881420ADA6F4800F048F96D48234652
:10192000F9B2426808F0FF0000F082F969482430FB
:1019300000F03CF9674823462430E9B24268F0B22F
:1019400000F076F9DBF8000000F03CFA4A4600F0BF
:1019500010FF00F0F3F9624909684863DAF82C00D7
:1019600000F030FA4A4600F004FF00F0E7F95D4964
:10197000096848630A20FEF7C1FC564824304168D4
:1019800065488142C2DD4FF47A70FEF7B7FC5148DA
:10199000416801606149816000F124014A680A6080
:1019A0005A4A8A6036E04B485D49406888420ADD01
:1019B000484800F0FBF847482346F9B2426808F06F
:1019C000FF0000F035F94348243000F0EFF84148BB
:1019D00023462430E9B24268F0B200F029F9DBF87E
:1019E000000000F0EFF94A4600F0C3FE00F0A6F94F
:1019F0003B4909684863DAF82C0000F0E3F94A46ED
:101A000000F0B7FE00F09AF93649096848630A20E9
:101A1000FEF774FC2F48243041683E488142C2DA08
:101A20004FF47A70FEF76AFC2A4841680160002191
:101A30008160243042680260816034E0254800F013
:101A4000B5F8244842682430009200F0AFF82148ED
:101A500023462430F9B242680A9208F0FF00009A47
:101A600000F0E6F82346E9B2F0B20A9A00F0E0F896
:101A7000DBF8000000F0A6F94A4600F07AFE00F01C
:101A80005DF9174909684863DAF82C0000F09AF903
:101A90004A4600F06EFE00F051F9124909684863A9
:101AA0000A20FEF72BFC0B4824304068B0F5000FED
:101AB000C4DA0B490020096848630A490968486389
:101AC00001460748FFF780FA00210648FFF77CFA35
:101AD000FEE70000100000200000FA43CDCCCC3D12
:101AE00058000020A00000200000A040000020417D
:101AF0002C2C01400000C040000010410000A0411B
:101B0000000020420000A84100001C4200004842A2
:101B10000000C84200004C420000C6420000C8411C
:101B20000000C0412DE9F0410446C06900F0FAFB15
:101B30000546A06900F0F6FB012100F048FE2946A9
:101B400000F070FD294600F0EFFA00F04DFA05466E
:101B50000E46206A00F048FA81F000412A463346DA
:101B600000F044F900F0B0F8FFF738FD4FF07E5177
:101B700000F066FA266805463146A06800F052FD7E
:101B8000294600F0D1FA314600F05AFA6060216926
:101B900000F0DCFC01D2206960606169606800F0DF
:101BA000D5FB01D260696060BDE8F08170B5044684
:101BB00001690025806800F0C9FC01D22069A0609D
:101BC0006169A06800F0C2FB01D26069A060D4E93D
:101BD000001000F027FD20F00040E16800F0B6FBA7
:101BE00016D2E069A0B96169206800F0AFFB01D2AC
:101BF000606920602168A06800F014FD20F00040BA
:101C0000E16800F091FA00F06DFB401CC4E9065059
:101C1000D4E90601884206D22046FFF783FFA06977
:101C2000401CA06170BDA068E561A561606070BDE9
:101C30002DE9F041054698460C46104600F0D4F9CF
:101C400007460E46404600F0A6F8184A184B00F02A
:101C5000CDF83A46334600F0C9F800F035F80146B1
:101C6000144800F061FA00F021FB1349012D0A68C5
:101C700005D0022D10D0D062C860BDE8F081D062DE
:101C8000C8604FF480710D480DE0012200E0002291
:101C9000BDE8F041FEF740BC09490A68D062C8605F
:101CA00008484FF40041012CF1D1EEE7448B6CE77A
:101CB000FBA90A4000247449580000200018014084
:101CC000A0000020001C014021F00042A2F160525F
:101CD000B2F5801F01F0004328BFD2F17F6C0BD911
:101CE0005FEA001C43EAC20242EB507018BF704723
:101CF00028BF20F001007047B2F5801FBCBF184616
:101D000070474FEA410C1CF5001F02D2084600F054
:101D100018BC70B500F014F900000089FFF7F6BF99
:101D20004FF00040A0F580007047000002494FF0DE
:101D3000000000F0ECBC00BF0000F87F4FEA115338
:101D4000A3F58063D3F11E03A8BFD3F1200C08DBF9
:101D50004FF0004242EAC12252EA505232FA03F0F6
:101D6000704709420BD4102BC4BF0020704703F505
:101D7000787CBCF1FF3F05D04FF0FF3070474FF04B
:101D80000000704770B500F0DBF800BF4992248076
:101D900000207047F0E710F0004248BF4042B0FA20
:101DA00080F310FA03F10AD0C3F11D0303F5806339
:101DB0004FEA415002EB035202EBD12170474FF042
:101DC00000007047B0FA80F310FA03F10AD0C3F1B3
:101DD0001D0303F580634FEA41504FEA035202EBC3
:101DE000D12170474FF0000070470000DFF848C174
:101DF00070B51CEA111E1EBF1CEA13159EEA0C0FDB
:101E000095EA0C0F00F06F8081EA030423EA4C137B
:101E10004EEAD47E21EA4C1141F4801143F4801340
:101E2000AE44A1FB024CA0FB0365AEF17F7E3619E8
:101E300055EB0C05A1FB034C4CF10003A0FB021C6D
:101E400016EB0C06654153F10003094218BF46F03A
:101E5000010613F4007F0BD14FEA03314FEA05303E
:101E6000340341EA155140EA16506FF003020AE0CC
:101E70004FEAC3214FEAC520F40241EA555140EA36
:101E800056506FF0020202EB2E4201EB025585EA3A
:101E9000CE710AD05FEA440C18BF24F0004450F120
:101EA000000041F1000120EAD47040F2FE7C62455E
:101EB00000D270BDA84214BF4FF080444FF04044A0
:101EC000002E08BF0024BEF1806FA8BFA1F1C04161
:101ED000BDE8704080F282804FF0000001F1C04107
:101EE00001F0004170479EEA0C0F0CEA131518BF71
:101EF00095EA0C0F06D04FF0000081EA030E0EF0B9
:101F0000004170BD00F01CF88900013E00F007B8E8
:101F100000F009B84FEA430C5FEA5C5C08D081EA44
:101F2000030100F05BB84FEA410C5FEA5C5CF6D15C
:101F30004FF00000014970470000FF070000F87FE4
:101F40000EF1020E2EF0030E5EF8046B364205D43D
:101F5000012A43EB030515F5001F12D8012841EBB8
:101F6000010C1CF5001F0CD80ED14FEAD17C15F5E1
:101F7000001F0CEB4C0C0CF1020C08BF4CEBD37C9B
:101F800004E04FF0080C01E04FEAD37C0CEB4C0569
:101F900026FA05F606F00706B6F1040C06D20EEB9B
:101FA000860CBDE870404CF0010C6047DFE80CF097
:101FB000090B02024FF000414FF00000A1F5002193
:101FC00070BD19461046012851EB010418BFD4F525
:101FD000001484BF002001F0004170BD0808A0F586
:101FE00000114FEA3101704743004FEAD30C4FEA2A
:101FF0003C0C43401FBF40070CF1605113F0FE4FF3
:1020000070471CF0006F03D100200CF000417047B6
:102010000CF0004343EA507010B540EACC0000F0E9
:102020004AFA00BF000000924FEA0001FFF7D6BF56
:102030004FF000414FF00000A1F500217047000073
:1020400090EA010F48BF81F0004100F1F282421A8C
:102050003CBF801A89184FEAD0524FF07F4C1CEADF
:10206000410FA2EBD15318BF9CEA026F00F03B80F6
:102070004FF0004C4CEA00204CEA012121FA03FC0D
:1020800010EB0C0C1ED202F1FF325FEA1C2040EB79
:10209000C25038BF70471CF07F0F4FEA400C18BF8A
:1020A000BCF17F4F38BF7047C3F12003994008BF90
:1020B00020F00100BCF17F4F38BF7047A0F1C04055
:1020C00000F03FBA4FEA3C00000A40EBC25028BF84
:1020D0001CF0FF0F4FEA400CE6D018BFBCF17F4F59
:1020E00038BF7047EAE79CEA026F05D010EA5C0F40
:1020F00008BF00F00040704710B500F0DCF900BFE9
:1021000064FBBE3E014800F002BB00BF0000C07F80
:10211000401058BFC0F14040491058BFC1F1404184
:102120008142EFF3008070474FF47F0C1CEAD0121D
:102130001EBF1CEAD11392EA0C0F93EA0C0F00F0B9
:10214000858090EA010F48BF42F4807240F4000C91
:1021500041F400002CF07F4120F07F4000B5814227
:10216000A2EB03020FF2081CACEB504EC0F10000D2
:102170009EF800E04FEA4E0E00FB0EFC38BF49000F
:102180004FEA2C1C02F5FA020CFB0EF34FEACE1EAE
:102190004FEA112C4FEAC1210EEB635E42EB224263
:1021A0000EFB0CFC4FEA1C5300FB03114FEA112CF1
:1021B0004FEA01310EFB0CFC4FEADC4C00FB0C112A
:1021C000C14228BF09184CEB03335DF804EB10EB58
:1021D000410143EBC250B2F57C0F38BF704729D59F
:1021E00012F0F00F1CBF00F1C04000F0004070473B
:1021F000008182838485868788898B8C8D8E8F91E0
:102200009293959697999A9C9D9FA0A2A3A5A7A803
:10221000AAACAEB0B2B3B5B7B9BCBEC0C2C5C7C92F
:10222000CCCED1D4D7D9DCDFE2E6E9ECF0F3F7FA93
:10223000FE0000004FEA400C0CF1807CBCF17E4FA8
:1022400028BF7047B0F1C04000F07BB990EA010FA1
:102250000CEAD11348BF42F48072624538BF63452F
:1022600007D213F47F0F16D080EA010000F000407F
:10227000704710B500F01FF9097EFC3E00F005B86C
:1022800080EA010000F00040704780EA010000F0A1
:10229000004000F056B912F47F0F04BF02487047A7
:1022A00080EA010000F04DB90000C07F41000B0E34
:1022B000D3F19E0208D950F400034FEA032323FA16
:1022C00002F048BF4042704710B500F0F4F800BF7C
:1022D00049922480002070476FF0004282EA20007B
:1022E00070470000C10DD1F19E0206DB4FEA0023CA
:1022F00043F0004323FA02F07047004207D54FEA4B
:102300004001B1F1FE4F02D24FF00000704710B50E
:1023100000F0D1F849922480002070476FEA200035
:1023200070470000B0FA80F310FA03F2C3F19D0386
:102330000AD0D90501EB1220530638BF704700F1CF
:10234000010008BF20F001007047000050EA010CB6
:1023500000F113801CF5000F58BFBCF5000F01D42D
:102360008842704707D710F5000F58BF11F5000FCE
:1023700015D488427047894270471CF5000F04D578
:10238000BCF5000FF7D5814270474FF0807C1CEB05
:10239000400F38BF1CEB410F01D28142704710B58E
:1023A00000F089F8922449004FF000504FF080511E
:1023B000FFF7AEBE4FF47F0C1CEAD0121EBF1CEA22
:1023C000D11392EA0C0F93EA0C0F00F0478090EAC9
:1023D000010F48BF42F480724FF0004C4CEA0020DD
:1023E0004CEA012102EB0302A0FB0113A2F500025B
:1023F000002918BF43F001035B0028BF4FEA3303F5
:1024000042EB22425FEA132C4CEBC2502EBFBCEBD6
:10241000436FB2F57C0F70474FEA036CBCF1004F7D
:1024200008BF20F00100B2F57C0F38BF70470BD514
:1024300082F0FF0212F5803FC8BF704700F1C04034
:10244000D8BF00F00040704700F5000C5FEA4C0C6C
:1024500048BF7047B0F1C04000F073B890EA010F78
:102460000CEAD11348BF42F48072624538BF63451D
:1024700004D280EA010000F00040704710B500F07F
:102480001AF800BF8900013E00F007B800F009B853
:102490005FEA410C5FEA1C6C08D080EA010000F0A2
:1024A00050B85FEA400C5FEA1C6CF6D14FF0004078
:1024B000A0F5800070470EF1020E2EF0030E5EF8BC
:1024C000044B244204D44FEA4102B2F17F4F11D8A9
:1024D0004FEA4003B3F17F4F0CD80ED14FEAD07CC6
:1024E000B2F17F4F0CEB4C0C0CF1020C08BF4CEB23
:1024F000D17C04E04FF0080C01E04FEAD17C0CEBFA
:102500004C0324FA03F404F00704B4F1040C06D2DB
:102510000EEB840CBDE810404CF0010C6047DFE886
:102520000CF0070802024FF00040A0F5800010BD3B
:102530000846420018BFD2F1807288BF00F0004008
:1025400010BDFF2141EAD050C005704751EA000C90
:1025500000F113801CF5000F58BFBCF5000F01D42B
:102560008142704707D711F5000F58BF10F5000FD3
:1025700015D481427047894270471CF5000F04D57D
:10258000BCF5000FF7D5884270474FF0807C1CEBFC
:10259000410F38BF1CEB400F01D28842704780EAE0
:1025A000010081EA000180EA0100FFF7F8BE0000A7
:1025B0005FEA400C5FEA1C6CBCF17F0314D4D3F1DA
:1025C000170240F31C804FF0010C0CFA02FCACF136
:1025D00001030340B3EB5C0220EA030008BF10EAEA
:1025E0000C0F88BF60447047B3F1FF3F28BF5FEA1C
:1025F000002C00F0004088BF40F07E507047BCF1D6
:10260000FF0FB8BF704710B5FFF755FF40DBB6BEF0
:1026100080F0004090EA010F7FF519AD81F0004194
:1026200000F007B890EA010F48BF81F000413FF584
:102630000EAD421A04D882F00042A0EB0200114411
:102640004FEAD0524FF07F4C1CEA410FA2EBD1531E
:1026500018BF9CEA026F4AD04FF0004C4CEA0020B1
:102660004CEA012121FA03FCB0EB0C0C0FD412F060
:10267000FE0F36D05FEA4C001DD5001240EBC25071
:1026800038BF70471CF03F0F18BF70470BE0A2F136
:1026900001025FEA1C2040EBC25038BF70471CF0BB
:1026A0007F0F18BF7047C3F12003994014BF401E2D
:1026B00020F00100704780084FEA122308BF7047DE
:1026C000B0FA80FCA2EB0C02CCF1280C60FA0CF002
:1026D00093EA122F04BF00EBC25070474FEAC37059
:1026E0007047130A5FEADC1008BF7047F6E79CEA00
:1026F000026F04D010EA5C0F08BF0020704710B5CD
:10270000FFF7D9FE40DFF63E81F0004070470CF045
:102710000F03092B08BF082000F07F800A2B0BD085
:10272000082B18BF704708BF1CF0400F0AD04FF0AD
:1027300000004FF0000170471CF0400F18BF4FF031
:10274000004070471CF0100F08D020F0704300F0DC
:102750007F4242EAD3014FEA4370704700F0604085
:1027600021F07F4242EA000201F07F4040EA7270AD
:1027700070474FF0FF0C4CF4E06C1CEA11531CBF87
:102780009CEA030C9445C2BFDA4201EB0251704748
:10279000002B0DD0BCF1000F0FD0002A01F000413A
:1027A000A4BF41F0E04141F07F614FF0000070476D
:1027B00001F000414FF00000704750EA01334FF044
:1027C0009B0C18BF4CF0806C7FF4B0AA70474FF0A0
:1027D000FF0212EAD0521CBF92F0FF038B42C2BF2D
:1027E000D14200EBC1507047002A0AD0002B0BD019
:1027F000002900F00040A4BF40F0FE4040F400007B
:10280000704700F00040704743024FF00B0C18BFB8
:102810004CF0806C7FF476AC70471CF4801F11D0B4
:102820001CF4E02F03D06FEACC31490070474FF021
:102830004050EFF3008222F0704242EA000282F33D
:10284000008870474FF00000704700000000000053
:102850000000010203040607080900000000803F91
:102860000030983F0000B53F0040D73F0000000017
:10287000320A7E397F661E395B991F390000803F1E
:10288000F037983FF304B53FFD44D73FAC2800082C
:1028900000000020100000006C010008BC280008A7
:1028A0001000002038070000880100080100000027
:0C28B00010000000000000000024F400F4
:0400000508000131BD
:00000001FF
